{
  "address": "0x32ccEfc3Ce4b39022ED5F6f8d9169A68B8f04e5F",
  "abi": [
    {
      "inputs": [
        {
          "internalType": "address",
          "name": "_agreementImplementation",
          "type": "address"
        },
        {
          "internalType": "address payable",
          "name": "_platformAddress",
          "type": "address"
        }
      ],
      "stateMutability": "nonpayable",
      "type": "constructor"
    },
    {
      "anonymous": false,
      "inputs": [
        {
          "indexed": true,
          "internalType": "address",
          "name": "agreement",
          "type": "address"
        },
        {
          "indexed": true,
          "internalType": "address",
          "name": "brand",
          "type": "address"
        },
        {
          "indexed": true,
          "internalType": "address",
          "name": "influencer",
          "type": "address"
        }
      ],
      "name": "AgreementCreated",
      "type": "event"
    },
    {
      "anonymous": false,
      "inputs": [
        {
          "indexed": false,
          "internalType": "address",
          "name": "addr",
          "type": "address"
        }
      ],
      "name": "PlatformAddressChanged",
      "type": "event"
    },
    {
      "inputs": [],
      "name": "agreementImplementation",
      "outputs": [
        {
          "internalType": "address",
          "name": "",
          "type": "address"
        }
      ],
      "stateMutability": "view",
      "type": "function"
    },
    {
      "inputs": [
        {
          "internalType": "bytes20",
          "name": "_salt",
          "type": "bytes20"
        },
        {
          "internalType": "address",
          "name": "_link",
          "type": "address"
        },
        {
          "internalType": "address",
          "name": "_oracle",
          "type": "address"
        },
        {
          "internalType": "address",
          "name": "_tokenPaymentAddress",
          "type": "address"
        },
        {
          "internalType": "address payable",
          "name": "_brand",
          "type": "address"
        },
        {
          "internalType": "address payable",
          "name": "_influencer",
          "type": "address"
        },
        {
          "internalType": "uint256",
          "name": "_endDate",
          "type": "uint256"
        },
        {
          "internalType": "uint256",
          "name": "_payPerView",
          "type": "uint256"
        },
        {
          "internalType": "uint256",
          "name": "_budget",
          "type": "uint256"
        },
        {
          "internalType": "bool",
          "name": "_usingEth",
          "type": "bool"
        }
      ],
      "name": "createAgreement",
      "outputs": [
        {
          "internalType": "address",
          "name": "_agreement",
          "type": "address"
        }
      ],
      "stateMutability": "payable",
      "type": "function"
    },
    {
      "inputs": [
        {
          "internalType": "bytes20",
          "name": "_salt",
          "type": "bytes20"
        },
        {
          "internalType": "address",
          "name": "_brand",
          "type": "address"
        },
        {
          "internalType": "address",
          "name": "_influencer",
          "type": "address"
        },
        {
          "internalType": "uint256",
          "name": "_endDate",
          "type": "uint256"
        },
        {
          "internalType": "uint256",
          "name": "_payPerView",
          "type": "uint256"
        },
        {
          "internalType": "uint256",
          "name": "_budget",
          "type": "uint256"
        },
        {
          "internalType": "bool",
          "name": "_usingEth",
          "type": "bool"
        }
      ],
      "name": "getAddressForCounterfactualAgreement",
      "outputs": [
        {
          "internalType": "address",
          "name": "_agreement",
          "type": "address"
        }
      ],
      "stateMutability": "view",
      "type": "function"
    },
    {
      "inputs": [],
      "name": "platformAddress",
      "outputs": [
        {
          "internalType": "address payable",
          "name": "",
          "type": "address"
        }
      ],
      "stateMutability": "view",
      "type": "function"
    },
    {
      "stateMutability": "payable",
      "type": "receive"
    }
  ],
  "transactionHash": "0xb6de61ff02fe998481d88b82603dd09e0b7a0834d207c8ae600d2ca4a4e6a334",
  "args": [
    "0xE88D0b34cAF74D22989A32b42e128acdb3ED3c6A",
    "0x181af5Fc47b5c276BE283B40AFD5A1b0219e8312"
  ],
  "solcInputHash": "2c260c917dc7608858309ba172c5e9c6",
  "bytecode": "0x608060405234801561001057600080fd5b5060405161081a38038061081a8339818101604052604081101561003357600080fd5b5080516020909101516001600160a01b0382166100815760405162461bcd60e51b815260040180806020018281038252602f8152602001806107eb602f913960400191505060405180910390fd5b6001600160a01b0381166100dc576040805162461bcd60e51b815260206004820181905260248201527f41463a20706c6174666f726d2061646472657373206e6f7420646566696e6564604482015290519081900360640190fd5b600080546001600160a01b039384166001600160a01b031991821617909155600180549290931691161790556106d4806101176000396000f3fe6080604052600436106100435760003560e01c80631600a0c81461004f5780636587f68d14610080578063dbe55e56146100f3578063ed53e21d146101085761004a565b3661004a57005b600080fd5b34801561005b57600080fd5b5061006461016f565b604080516001600160a01b039092168252519081900360200190f35b610064600480360361014081101561009757600080fd5b506001600160601b0319813516906001600160a01b03602082013581169160408101358216916060820135811691608081013582169160a0820135169060c08101359060e081013590610100810135906101200135151561017e565b3480156100ff57600080fd5b50610064610219565b34801561011457600080fd5b50610064600480360360e081101561012b57600080fd5b506001600160601b0319813516906001600160a01b03602082013581169160408101359091169060608101359060808101359060a08101359060c001351515610228565b6000546001600160a01b031681565b6000806101908c898989898989610260565b60008054919250906101ab906001600160a01b0316836102e8565b90506101bf818d8d8d8d8d8d8d8d8d610393565b876001600160a01b0316896001600160a01b0316826001600160a01b03167f85ea329f902d8f6d6228fe9532075c83ed93e6cf0db25379989ca84a185df02860405160405180910390a49c9b505050505050505050505050565b6001546001600160a01b031681565b60008061023a89898989898989610260565b600054909150610253906001600160a01b03168261062c565b9998505050505050505050565b604080516001600160601b0319606098891b81166020808401919091529790981b88166034820152604881019590955260688501939093526088840191909152151560f81b60a88301528051608981840301815260a98301825280519084012060c98301529390921660e9830152825160dd81840301815260fd909201909252805191012090565b6000604051733d602d80600a3d3981f3363d3d373d3d3d363d7360601b81528360601b60148201526e5af43d82803e903d91602b57fd5bf360881b6028820152826037826000f59150506001600160a01b03811661038d576040805162461bcd60e51b815260206004820152601760248201527f455243313136373a2063726561746532206661696c6564000000000000000000604482015290519081900360640190fd5b92915050565b80156103ef576040516001600160a01b038b16908390600081818185875af1925050503d80600081146103e2576040519150601f19603f3d011682016040523d82523d6000602084013e6103e7565b606091505b505050610478565b604080516323b872dd60e01b81526001600160a01b0388811660048301528c8116602483015260448201859052915189928316916323b872dd9160648083019260209291908290030181600087803b15801561044a57600080fd5b505af115801561045e573d6000803e3d6000fd5b505050506040513d602081101561047457600080fd5b5050505b6001546040805163d6cda0e160e01b81526001600160a01b0392831660048201528b831660248201528a831660448201528983166064820152888316608482015287831660a482015260c4810187905260e4810186905261010481018590528315156101248201529051918c169163d6cda0e1916101448082019260009290919082900301818387803b15801561050e57600080fd5b505af1158015610522573d6000803e3d6000fd5b5050604080516370a0823160e01b815230600482015290518c93506001600160a01b038416925063095ea7b3918e9184916370a08231916024808301926020929190829003018186803b15801561057857600080fd5b505afa15801561058c573d6000803e3d6000fd5b505050506040513d60208110156105a257600080fd5b5051604080516001600160e01b031960e086901b1681526001600160a01b03909316600484015260248301919091525160448083019260209291908290030181600087803b1580156105f357600080fd5b505af1158015610607573d6000803e3d6000fd5b505050506040513d602081101561061d57600080fd5b50505050505050505050505050565b6000610639838330610640565b9392505050565b604051733d602d80600a3d3981f3363d3d373d3d3d363d7360601b8152606093841b60148201526f5af43d82803e903d91602b57fd5bf3ff60801b6028820152921b6038830152604c8201526037808220606c83015260559101209056fea2646970667358221220b286a198f40cde7a8fdfbd209156ffb7756a00dff5f6e25ef12a048d588c85c864736f6c6343000606003341463a2041677265656d656e74496d706c656d656e746174696f6e2061646472657373206e6f7420646566696e6564",
  "devdoc": {
    "methods": {
      "constructor": {
        "details": "Initialize the factory contract      "
      },
      "createAgreement(bytes20,address,address,address,address,address,uint256,uint256,uint256,bool)": {
        "details": "Create an agreement"
      },
      "getAddressForCounterfactualAgreement(bytes20,address,address,uint256,uint256,uint256,bool)": {
        "details": "Get agreements for a user"
      }
    }
  },
  "userdoc": {
    "methods": {}
  },
  "storageLayout": {
    "storage": [
      {
        "astId": 3924,
        "contract": "contracts/AgreementFactory.sol:AgreementFactory",
        "label": "agreementImplementation",
        "offset": 0,
        "slot": "0",
        "type": "t_address"
      },
      {
        "astId": 3926,
        "contract": "contracts/AgreementFactory.sol:AgreementFactory",
        "label": "platformAddress",
        "offset": 0,
        "slot": "1",
        "type": "t_address_payable"
      }
    ],
    "types": {
      "t_address": {
        "encoding": "inplace",
        "label": "address",
        "numberOfBytes": "20"
      },
      "t_address_payable": {
        "encoding": "inplace",
        "label": "address payable",
        "numberOfBytes": "20"
      }
    }
  }
}