{
  "address": "0x14fF78eb289e54FE0997018d25DbF911Dc67C1ed",
  "abi": [
    {
      "anonymous": false,
      "inputs": [
        {
          "indexed": true,
          "internalType": "bytes32",
          "name": "id",
          "type": "bytes32"
        }
      ],
      "name": "ChainlinkCancelled",
      "type": "event"
    },
    {
      "anonymous": false,
      "inputs": [
        {
          "indexed": true,
          "internalType": "bytes32",
          "name": "id",
          "type": "bytes32"
        }
      ],
      "name": "ChainlinkFulfilled",
      "type": "event"
    },
    {
      "anonymous": false,
      "inputs": [
        {
          "indexed": true,
          "internalType": "bytes32",
          "name": "id",
          "type": "bytes32"
        }
      ],
      "name": "ChainlinkRequested",
      "type": "event"
    },
    {
      "anonymous": false,
      "inputs": [
        {
          "indexed": false,
          "internalType": "string",
          "name": "media",
          "type": "string"
        }
      ],
      "name": "MediaUpdated",
      "type": "event"
    },
    {
      "anonymous": false,
      "inputs": [
        {
          "indexed": true,
          "internalType": "address",
          "name": "from",
          "type": "address"
        },
        {
          "indexed": true,
          "internalType": "address",
          "name": "to",
          "type": "address"
        },
        {
          "indexed": false,
          "internalType": "uint256",
          "name": "amount",
          "type": "uint256"
        }
      ],
      "name": "PaidSomeone",
      "type": "event"
    },
    {
      "anonymous": false,
      "inputs": [
        {
          "indexed": false,
          "internalType": "uint256",
          "name": "viewCount",
          "type": "uint256"
        }
      ],
      "name": "ViewCountResponse",
      "type": "event"
    },
    {
      "inputs": [],
      "name": "API_KEY",
      "outputs": [
        {
          "internalType": "string",
          "name": "",
          "type": "string"
        }
      ],
      "stateMutability": "view",
      "type": "function"
    },
    {
      "inputs": [],
      "name": "BASE_URL",
      "outputs": [
        {
          "internalType": "string",
          "name": "",
          "type": "string"
        }
      ],
      "stateMutability": "view",
      "type": "function"
    },
    {
      "inputs": [],
      "name": "PLATFORM_FEE",
      "outputs": [
        {
          "internalType": "uint256",
          "name": "",
          "type": "uint256"
        }
      ],
      "stateMutability": "view",
      "type": "function"
    },
    {
      "inputs": [],
      "name": "agreementStatus",
      "outputs": [
        {
          "internalType": "enum BaseAgreement.Status",
          "name": "",
          "type": "uint8"
        }
      ],
      "stateMutability": "view",
      "type": "function"
    },
    {
      "inputs": [
        {
          "internalType": "string",
          "name": "_mediaLink",
          "type": "string"
        }
      ],
      "name": "approveAgreement",
      "outputs": [],
      "stateMutability": "nonpayable",
      "type": "function"
    },
    {
      "inputs": [],
      "name": "brand",
      "outputs": [
        {
          "internalType": "address payable",
          "name": "",
          "type": "address"
        }
      ],
      "stateMutability": "view",
      "type": "function"
    },
    {
      "inputs": [],
      "name": "budget",
      "outputs": [
        {
          "internalType": "uint256",
          "name": "",
          "type": "uint256"
        }
      ],
      "stateMutability": "view",
      "type": "function"
    },
    {
      "inputs": [],
      "name": "endAgreement",
      "outputs": [],
      "stateMutability": "nonpayable",
      "type": "function"
    },
    {
      "inputs": [],
      "name": "endDate",
      "outputs": [
        {
          "internalType": "uint256",
          "name": "",
          "type": "uint256"
        }
      ],
      "stateMutability": "view",
      "type": "function"
    },
    {
      "inputs": [],
      "name": "factoryAddress",
      "outputs": [
        {
          "internalType": "address payable",
          "name": "",
          "type": "address"
        }
      ],
      "stateMutability": "view",
      "type": "function"
    },
    {
      "inputs": [
        {
          "internalType": "bytes32",
          "name": "_requestId",
          "type": "bytes32"
        },
        {
          "internalType": "bytes32",
          "name": "_viewCount",
          "type": "bytes32"
        }
      ],
      "name": "fulfillWithdraw",
      "outputs": [],
      "stateMutability": "nonpayable",
      "type": "function"
    },
    {
      "inputs": [],
      "name": "getAgreementDetails",
      "outputs": [
        {
          "internalType": "address",
          "name": "_tokenPaymentAddress",
          "type": "address"
        },
        {
          "internalType": "address payable",
          "name": "_brand",
          "type": "address"
        },
        {
          "internalType": "address payable",
          "name": "_influencer",
          "type": "address"
        },
        {
          "internalType": "uint256",
          "name": "_endDate",
          "type": "uint256"
        },
        {
          "internalType": "uint256",
          "name": "_payPerView",
          "type": "uint256"
        },
        {
          "internalType": "uint256",
          "name": "_budget",
          "type": "uint256"
        },
        {
          "internalType": "bool",
          "name": "_usingEth",
          "type": "bool"
        },
        {
          "internalType": "string",
          "name": "_mediaLink",
          "type": "string"
        },
        {
          "internalType": "enum BaseAgreement.Status",
          "name": "_agreementStatus",
          "type": "uint8"
        }
      ],
      "stateMutability": "view",
      "type": "function"
    },
    {
      "inputs": [],
      "name": "influencer",
      "outputs": [
        {
          "internalType": "address payable",
          "name": "",
          "type": "address"
        }
      ],
      "stateMutability": "view",
      "type": "function"
    },
    {
      "inputs": [
        {
          "internalType": "address payable",
          "name": "_platformAddress",
          "type": "address"
        },
        {
          "internalType": "address",
          "name": "_link",
          "type": "address"
        },
        {
          "internalType": "address",
          "name": "_oracle",
          "type": "address"
        },
        {
          "internalType": "address",
          "name": "_tokenPaymentAddress",
          "type": "address"
        },
        {
          "internalType": "address payable",
          "name": "_brand",
          "type": "address"
        },
        {
          "internalType": "address payable",
          "name": "_influencer",
          "type": "address"
        },
        {
          "internalType": "uint256",
          "name": "_endDate",
          "type": "uint256"
        },
        {
          "internalType": "uint256",
          "name": "_payPerView",
          "type": "uint256"
        },
        {
          "internalType": "uint256",
          "name": "_budget",
          "type": "uint256"
        },
        {
          "internalType": "bool",
          "name": "_usingEth",
          "type": "bool"
        }
      ],
      "name": "init",
      "outputs": [],
      "stateMutability": "nonpayable",
      "type": "function"
    },
    {
      "inputs": [],
      "name": "mediaLink",
      "outputs": [
        {
          "internalType": "string",
          "name": "",
          "type": "string"
        }
      ],
      "stateMutability": "view",
      "type": "function"
    },
    {
      "inputs": [],
      "name": "payPerView",
      "outputs": [
        {
          "internalType": "uint256",
          "name": "",
          "type": "uint256"
        }
      ],
      "stateMutability": "view",
      "type": "function"
    },
    {
      "inputs": [],
      "name": "platformAddress",
      "outputs": [
        {
          "internalType": "address payable",
          "name": "",
          "type": "address"
        }
      ],
      "stateMutability": "view",
      "type": "function"
    },
    {
      "inputs": [],
      "name": "rejectAgreement",
      "outputs": [],
      "stateMutability": "nonpayable",
      "type": "function"
    },
    {
      "inputs": [],
      "name": "token",
      "outputs": [
        {
          "internalType": "contract IERC20",
          "name": "",
          "type": "address"
        }
      ],
      "stateMutability": "view",
      "type": "function"
    },
    {
      "inputs": [],
      "name": "usingEth",
      "outputs": [
        {
          "internalType": "bool",
          "name": "",
          "type": "bool"
        }
      ],
      "stateMutability": "view",
      "type": "function"
    },
    {
      "inputs": [
        {
          "internalType": "bytes32",
          "name": "_jobId",
          "type": "bytes32"
        },
        {
          "internalType": "uint256",
          "name": "_oracleFee",
          "type": "uint256"
        }
      ],
      "name": "withdraw",
      "outputs": [
        {
          "internalType": "bytes32",
          "name": "requestId",
          "type": "bytes32"
        }
      ],
      "stateMutability": "nonpayable",
      "type": "function"
    },
    {
      "stateMutability": "payable",
      "type": "receive"
    }
  ],
  "transactionHash": "0x5df691ad8cb0facad29f354f0ab69e296f96c8784a665228f5e776fc722b9252",
  "args": [],
  "solcInputHash": "2c260c917dc7608858309ba172c5e9c6",
  "bytecode": "0x600160048190556008556011805460ff1916905560e0604052602c6080818152906200211c60a03980516200003d9160129160209091019062000083565b50604051806080016040528060448152602001620020d86044913980516200006e9160139160209091019062000083565b503480156200007c57600080fd5b5062000128565b828054600181600116156101000203166002900490600052602060002090601f016020900481019282601f10620000c657805160ff1916838001178555620000f6565b82800160010185558215620000f6579182015b82811115620000f6578251825591602001919060010190620000d9565b506200010492915062000108565b5090565b6200012591905b808211156200010457600081556001016200010f565b90565b611fa080620001386000396000f3fe60806040526004361061012e5760003560e01c8063a3632c00116100ab578063d6cda0e11161006f578063d6cda0e1146104c4578063dbe55e561461053e578063e6c8304314610553578063ed01bf2914610568578063fc0c546a1461057d578063fd26f0371461059257610135565b8063a3632c001461036c578063a87588e71461039c578063ab50eebf146103b1578063b4bd7784146103c6578063c24a0f8b146104af57610135565b806334fbc9a1116100f257806334fbc9a11461027a5780637f78636a1461028f57806383d4422e14610319578063966dae0e1461032e5780639b3ad86e1461034357610135565b8063040cf0201461013a57806304914fd21461017c57806310c30b65146101fb57806310ccb04c146102105780632d9fff011461024957610135565b3661013557005b600080fd5b34801561014657600080fd5b5061016a6004803603604081101561015d57600080fd5b50803590602001356105a7565b60408051918252519081900360200190f35b34801561018857600080fd5b506101f96004803603602081101561019f57600080fd5b8101906020810181356401000000008111156101ba57600080fd5b8201836020820111156101cc57600080fd5b803590602001918460018302840111640100000000831117156101ee57600080fd5b509092509050610862565b005b34801561020757600080fd5b506101f9610982565b34801561021c57600080fd5b50610225610a9d565b6040518082600381111561023557fe5b60ff16815260200191505060405180910390f35b34801561025557600080fd5b5061025e610aa6565b604080516001600160a01b039092168252519081900360200190f35b34801561028657600080fd5b5061016a610ab5565b34801561029b57600080fd5b506102a4610abb565b6040805160208082528351818301528351919283929083019185019080838360005b838110156102de5781810151838201526020016102c6565b50505050905090810190601f16801561030b5780820380516001836020036101000a031916815260200191505b509250505060405180910390f35b34801561032557600080fd5b506102a4610b49565b34801561033a57600080fd5b5061025e610ba4565b34801561034f57600080fd5b50610358610bb3565b604080519115158252519081900360200190f35b34801561037857600080fd5b506101f96004803603604081101561038f57600080fd5b5080359060200135610bbc565b3480156103a857600080fd5b5061025e610cb7565b3480156103bd57600080fd5b5061016a610cc6565b3480156103d257600080fd5b506103db610ccc565b604080516001600160a01b03808c1682528a81166020830152891691810191909152606081018790526080810186905260a0810185905283151560c082015260e08101610100820183600381111561042f57fe5b60ff168152602001828103825284818151815260200191508051906020019080838360005b8381101561046c578181015183820152602001610454565b50505050905090810190601f1680156104995780820380516001836020036101000a031916815260200191505b509a505050505050505050505060405180910390f35b3480156104bb57600080fd5b5061016a610dad565b3480156104d057600080fd5b506101f960048036036101408110156104e857600080fd5b506001600160a01b038135811691602081013582169160408201358116916060810135821691608082013581169160a08101359091169060c08101359060e0810135906101008101359061012001351515610db3565b34801561054a57600080fd5b5061025e610e51565b34801561055f57600080fd5b506102a4610e60565b34801561057457600080fd5b5061016a610ebb565b34801561058957600080fd5b5061025e610ec1565b34801561059e57600080fd5b506101f9610ed0565b6000600260115460ff1660038111156105bc57fe5b1461060e576040805162461bcd60e51b815260206004820152601760248201527f436f6e7472616374206d75737420626520414354495645000000000000000000604482015290519081900360640190fd5b600c544210610664576040805162461bcd60e51b815260206004820181905260248201527f54696d652063616e6e6f7420626520706173742074686520656e642064617465604482015290519081900360640190fd5b61066d826110f9565b610675611e38565b61068684306228d8cb60ea1b611258565b9050606060136010601260405160200180848054600181600116156101000203166002900480156106ee5780601f106106cc5761010080835404028352918201916106ee565b820191906000526020600020905b8154815290600101906020018083116106da575b5050838054600181600116156101000203166002900480156107475780601f10610725576101008083540402835291820191610747565b820191906000526020600020905b815481529060010190602001808311610733575b5050828054600181600116156101000203166002900480156107a05780601f1061077e5761010080835404028352918201916107a0565b820191906000526020600020905b81548152906001019060200180831161078c575b505060408051601f19818403018152818301909152600382526219d95d60ea1b602083015295506107df9450869350915084905063ffffffff61128316565b610845604051806040016040528060048152602001630e0c2e8d60e31b8152506040518060400160405280601c81526020017f6974656d732e302e737461746973746963732e76696577436f756e7400000000815250846112839092919063ffffffff16565b6108576108506112ad565b83866112bd565b925050505b92915050565b600b546001600160a01b031633146108b6576040805162461bcd60e51b815260206004820152601260248201527126bab9ba1031329024b733363ab2b731b2b960711b604482015290519081900360640190fd5b6108c260108383611e6d565b506011805460ff19166002908117909155604080516020808252601080546001811615610100026000190116949094049082018190527f4d75afc79201f78c7fc33e5c3caa3d46cc92afa8991cc20de582dacf81b0d97e9392829190820190849080156109705780601f1061094557610100808354040283529160200191610970565b820191906000526020600020905b81548152906001019060200180831161095357829003601f168201915b50509250505060405180910390a15050565b600b546001600160a01b031633146109d6576040805162461bcd60e51b815260206004820152601260248201527126bab9ba1031329024b733363ab2b731b2b960711b604482015290519081900360640190fd5b600060115460ff1660038111156109e957fe5b14610a3b576040805162461bcd60e51b815260206004820152601960248201527f436f6e7472616374206d7573742062652050524f504f53454400000000000000604482015290519081900360640190fd5b306001600160a01b031663fd26f0376040518163ffffffff1660e01b8152600401600060405180830381600087803b158015610a7657600080fd5b505af1158015610a8a573d6000803e3d6000fd5b50506011805460ff191660011790555050565b60115460ff1681565b600a546001600160a01b031681565b60085481565b6013805460408051602060026001851615610100026000190190941693909304601f81018490048402820184019092528181529291830182828015610b415780601f10610b1657610100808354040283529160200191610b41565b820191906000526020600020905b815481529060010190602001808311610b2457829003601f168201915b505050505081565b6012805460408051602060026001851615610100026000190190941693909304601f81018490048402820184019092528181529291830182828015610b415780601f10610b1657610100808354040283529160200191610b41565b6006546001600160a01b031681565b600f5460ff1681565b60008281526005602052604090205482906001600160a01b03163314610c135760405162461bcd60e51b8152600401808060200182810382526028815260200180611f436028913960400191505060405180910390fd5b60008181526005602052604080822080546001600160a01b03191690555182917f7cc135e0cebb02c3480ae5d74d377283180a2601f8f644edf7987b009316c63a91a26060610c6183611494565b90506000610c7082600061158c565b6040805182815290519192507ff25f86c4b308746eb04b2d02cfaa9a524c3ee37dfa4d4cb693f4cedfbd212328919081900360200190a1610cb0816116a5565b5050505050565b600b546001600160a01b031681565b600d5481565b600954600a54600b54600c54600d54600e54600f546010805460408051602060026101006001861615026000190190941693909304601f81018490048402820184019092528181526001600160a01b039a8b169a998a16999098169760ff9094169360609360009391929091830182828015610d895780601f10610d5e57610100808354040283529160200191610d89565b820191906000526020600020905b815481529060010190602001808311610d6c57829003601f168201915b50505050509150601160009054906101000a900460ff169050909192939495969798565b600c5481565b60068054336001600160a01b031991821617909155600780549091166001600160a01b038c16179055610de589611713565b610dee88611735565b600980546001600160a01b03199081166001600160a01b03998a1617909155600a8054821697891697909717909655600b80549096169490961693909317909355600c55600d91909155600e55600f805460ff1916911515919091179055505050565b6007546001600160a01b031681565b6010805460408051602060026001851615610100026000190190941693909304601f81018490048402820184019092528181529291830182828015610b415780601f10610b1657610100808354040283529160200191610b41565b600e5481565b6009546001600160a01b031681565b600260115460ff166003811115610ee357fe5b141580610ef15750600c5442115b610f3a576040805162461bcd60e51b815260206004820152601560248201527441677265656d656e74207374696c6c20616c69766560581b604482015290519081900360640190fd5b6000610f44611757565b905060006064600854830281610f5657fe5b600a549190049150610f759030906001600160a01b03168385036117e8565b600754610f8d9030906001600160a01b0316836117e8565b6000610f9761196f565b600654604080516370a0823160e01b8152306004820181905291519394506001600160a01b03808616946323b872dd949091169185916370a0823191602480820192602092909190829003018186803b158015610ff357600080fd5b505afa158015611007573d6000803e3d6000fd5b505050506040513d602081101561101d57600080fd5b5051604080516001600160e01b031960e087901b1681526001600160a01b0394851660048201529290931660248301526044820152905160648083019260209291908290030181600087803b15801561107557600080fd5b505af1158015611089573d6000803e3d6000fd5b505050506040513d602081101561109f57600080fd5b50516110e7576040805162461bcd60e51b81526020600482015260126024820152712ab730b13632903a37903a3930b739b332b960711b604482015290519081900360640190fd5b50506011805460ff1916600317905550565b600061110361196f565b604080516370a0823160e01b815230600482015290519192506000916001600160a01b038416916370a08231916024808301926020929190829003018186803b15801561114f57600080fd5b505afa158015611163573d6000803e3d6000fd5b505050506040513d602081101561117957600080fd5b505190508281101561125357600654604080516323b872dd60e01b81526001600160a01b039283166004820152306024820152604481018690529051918416916323b872dd916064808201926020929091908290030181600087803b1580156111e157600080fd5b505af11580156111f5573d6000803e3d6000fd5b505050506040513d602081101561120b57600080fd5b5051611253576040805162461bcd60e51b81526020600482015260126024820152712ab730b13632903a37903a3930b739b332b960711b604482015290519081900360640190fd5b505050565b611260611e38565b611268611e38565b61127a8186868663ffffffff61197e16565b95945050505050565b6080830151611298908363ffffffff6119bb16565b6080830151611253908263ffffffff6119bb16565b6003546001600160a01b03165b90565b6004546040805130606090811b60208084019190915260348084018690528451808503909101815260549093018452825192810192909220908601939093526000838152600590915281812080546001600160a01b0319166001600160a01b038816179055905182917fb5e6e01e79f91267dc17b4e6314d5d4d03593d2ceee0fbb452b750bd70ea5af991a26002546001600160a01b0316634000aea08584611365876119d8565b6040518463ffffffff1660e01b815260040180846001600160a01b03166001600160a01b0316815260200183815260200180602001828103825283818151815260200191508051906020019080838360005b838110156113cf5781810151838201526020016113b7565b50505050905090810190601f1680156113fc5780820380516001836020036101000a031916815260200191505b50945050505050602060405180830381600087803b15801561141d57600080fd5b505af1158015611431573d6000803e3d6000fd5b505050506040513d602081101561144757600080fd5b50516114845760405162461bcd60e51b8152600401808060200182810382526023815260200180611f206023913960400191505060405180910390fd5b6004805460010190559392505050565b606060005b6020811080156114c157508281602081106114b057fe5b1a60f81b6001600160f81b03191615155b156114ce57600101611499565b60608167ffffffffffffffff811180156114e757600080fd5b506040519080825280601f01601f191660200182016040528015611512576020820181803683370190505b509050600091505b602082108015611542575083826020811061153157fe5b1a60f81b6001600160f81b03191615155b156115855783826020811061155357fe5b1a60f81b81838151811061156357fe5b60200101906001600160f81b031916908160001a90535060019091019061151a565b9392505050565b600082818080805b845181101561167c57801580156115c957508481815181106115b257fe5b6020910101516001600160f81b031916602d60f81b145b156115d357600191505b60308582815181106115e157fe5b016020015160f81c1080159061160b5750603985828151811061160057fe5b016020015160f81c11155b1561165257821561162857866116205761167c565b600019909601955b600a84029350603085828151811061163c57fe5b016020015160f81c0360ff169390930192611674565b84818151811061165e57fe5b60209101015160f81c602e141561167457600192505b600101611594565b50851561168c5785600a0a830292505b801561169a57600019830292505b509095945050505050565b60006116af611757565b600e54600d54919250829003908302819003828111156116cc5750815b600060646008548302816116dc57fe5b600b5491900491506116fb9030906001600160a01b03168385036117e8565b600754610cb09030906001600160a01b0316836117e8565b600280546001600160a01b0319166001600160a01b0392909216919091179055565b600380546001600160a01b0319166001600160a01b0392909216919091179055565b600f5460009060ff161561176c5750476112ba565b600954604080516370a0823160e01b815230600482015290516001600160a01b03909216916370a0823191602480820192602092909190829003018186803b1580156117b757600080fd5b505afa1580156117cb573d6000803e3d6000fd5b505050506040513d60208110156117e157600080fd5b5051905090565b801561191f57600f5460ff161561184f576040516001600160a01b038316908290600081818185875af1925050503d8060008114611842576040519150601f19603f3d011682016040523d82523d6000602084013e611847565b606091505b50505061191f565b600954604080516323b872dd60e01b81526001600160a01b038681166004830152858116602483015260448201859052915191909216916323b872dd9160648083019260209291908290030181600087803b1580156118ad57600080fd5b505af11580156118c1573d6000803e3d6000fd5b505050506040513d60208110156118d757600080fd5b505161191f576040805162461bcd60e51b81526020600482015260126024820152712ab730b13632903a37903a3930b739b332b960711b604482015290519081900360640190fd5b816001600160a01b0316836001600160a01b03167fdc301cf523dcc53cc7988a85e576aa7792f1c6eed01a04751a55c596b3721d85836040518082815260200191505060405180910390a3505050565b6002546001600160a01b031690565b611986611e38565b6119968560800151610100611b18565b50509183526001600160a01b031660208301526001600160e01b031916604082015290565b6119c88260038351611b52565b611253828263ffffffff611c6216565b6060634042994660e01b6000808460000151856020015186604001518760600151600189608001516000015160405160240180896001600160a01b03166001600160a01b03168152602001888152602001878152602001866001600160a01b03166001600160a01b03168152602001856001600160e01b0319166001600160e01b031916815260200184815260200183815260200180602001828103825283818151815260200191508051906020019080838360005b83811015611aa6578181015183820152602001611a8e565b50505050905090810190601f168015611ad35780820380516001836020036101000a031916815260200191505b5060408051601f198184030181529190526020810180516001600160e01b03166001600160e01b0319909d169c909c17909b5250989950505050505050505050919050565b611b20611eeb565b6020820615611b355760208206602003820191505b506020828101829052604080518085526000815290920101905290565b60178111611b7957611b738360e0600585901b16831763ffffffff611c7c16565b50611253565b60ff8111611baf57611b9c836018611fe0600586901b161763ffffffff611c7c16565b50611b738382600163ffffffff611c9416565b61ffff8111611be657611bd3836019611fe0600586901b161763ffffffff611c7c16565b50611b738382600263ffffffff611c9416565b63ffffffff8111611c1f57611c0c83601a611fe0600586901b161763ffffffff611c7c16565b50611b738382600463ffffffff611c9416565b67ffffffffffffffff811161125357611c4983601b611fe0600586901b161763ffffffff611c7c16565b50611c5c8382600863ffffffff611c9416565b50505050565b611c6a611eeb565b61158583846000015151848551611cb5565b611c84611eeb565b6115858384600001515184611d61565b611c9c611eeb565b611cad848560000151518585611dac565b949350505050565b611cbd611eeb565b8251821115611ccb57600080fd5b84602001518285011115611cf557611cf585611ced8760200151878601611e0a565b600202611e21565b600080865180518760208301019350808887011115611d145787860182525b505050602084015b60208410611d3b5780518252601f199093019260209182019101611d1c565b51815160001960208690036101000a019081169019919091161790525083949350505050565b611d69611eeb565b83602001518310611d8557611d85848560200151600202611e21565b835180516020858301018481535080851415611da2576001810182525b5093949350505050565b611db4611eeb565b84602001518483011115611dd157611dd185858401600202611e21565b60006001836101000a039050855183868201018583198251161781525080518487011115611dff5783860181525b509495945050505050565b600081831115611e1b57508161085c565b50919050565b8151611e2d8383611b18565b50611c5c8382611c62565b6040805160a081018252600080825260208201819052918101829052606081019190915260808101611e68611eeb565b905290565b828054600181600116156101000203166002900490600052602060002090601f016020900481019282601f10611eae5782800160ff19823516178555611edb565b82800160010185558215611edb579182015b82811115611edb578235825591602001919060010190611ec0565b50611ee7929150611f05565b5090565b604051806040016040528060608152602001600081525090565b6112ba91905b80821115611ee75760008155600101611f0b56fe756e61626c6520746f207472616e73666572416e6443616c6c20746f206f7261636c65536f75726365206d75737420626520746865206f7261636c65206f66207468652072657175657374a2646970667358221220226adb444e07d3a0aff21ea4090b156d9f6d50445c2dcb63aae5eb7623f4bebe64736f6c6343000606003368747470733a2f2f796f75747562652e676f6f676c65617069732e636f6d2f796f75747562652f76332f766964656f733f706172743d737461746973746963732669643d266b65793d41497a615379423855456b6e716630446d644a57354f773672475038636f37495f645a4568776f",
  "devdoc": {
    "methods": {
      "approveAgreement(string)": {
        "details": "Influencer approves the contract with a media link"
      },
      "endAgreement()": {
        "details": "Send brand remaining balance and returns link to platform"
      },
      "fulfillWithdraw(bytes32,bytes32)": {
        "details": "Callback for chainlink, this function pays the influencer"
      },
      "getAgreementDetails()": {
        "details": "Gets agreement details"
      },
      "init(address,address,address,address,address,address,uint256,uint256,uint256,bool)": {
        "details": "Inits the agreement"
      },
      "rejectAgreement()": {
        "details": "Influencer rejects contract and agreement ends"
      },
      "withdraw(bytes32,uint256)": {
        "details": "Get view count on a video"
      }
    }
  },
  "userdoc": {
    "methods": {}
  },
  "storageLayout": {
    "storage": [
      {
        "astId": 303,
        "contract": "contracts/BaseAgreement.sol:BaseAgreement",
        "label": "ens",
        "offset": 0,
        "slot": "0",
        "type": "t_contract(ENSInterface)935"
      },
      {
        "astId": 305,
        "contract": "contracts/BaseAgreement.sol:BaseAgreement",
        "label": "ensNode",
        "offset": 0,
        "slot": "1",
        "type": "t_bytes32"
      },
      {
        "astId": 307,
        "contract": "contracts/BaseAgreement.sol:BaseAgreement",
        "label": "link",
        "offset": 0,
        "slot": "2",
        "type": "t_contract(LinkTokenInterface)1030"
      },
      {
        "astId": 309,
        "contract": "contracts/BaseAgreement.sol:BaseAgreement",
        "label": "oracle",
        "offset": 0,
        "slot": "3",
        "type": "t_contract(ChainlinkRequestInterface)855"
      },
      {
        "astId": 312,
        "contract": "contracts/BaseAgreement.sol:BaseAgreement",
        "label": "requestCount",
        "offset": 0,
        "slot": "4",
        "type": "t_uint256"
      },
      {
        "astId": 316,
        "contract": "contracts/BaseAgreement.sol:BaseAgreement",
        "label": "pendingRequests",
        "offset": 0,
        "slot": "5",
        "type": "t_mapping(t_bytes32,t_address)"
      },
      {
        "astId": 4267,
        "contract": "contracts/BaseAgreement.sol:BaseAgreement",
        "label": "factoryAddress",
        "offset": 0,
        "slot": "6",
        "type": "t_address_payable"
      },
      {
        "astId": 4269,
        "contract": "contracts/BaseAgreement.sol:BaseAgreement",
        "label": "platformAddress",
        "offset": 0,
        "slot": "7",
        "type": "t_address_payable"
      },
      {
        "astId": 4272,
        "contract": "contracts/BaseAgreement.sol:BaseAgreement",
        "label": "PLATFORM_FEE",
        "offset": 0,
        "slot": "8",
        "type": "t_uint256"
      },
      {
        "astId": 4274,
        "contract": "contracts/BaseAgreement.sol:BaseAgreement",
        "label": "token",
        "offset": 0,
        "slot": "9",
        "type": "t_contract(IERC20)3380"
      },
      {
        "astId": 4276,
        "contract": "contracts/BaseAgreement.sol:BaseAgreement",
        "label": "brand",
        "offset": 0,
        "slot": "10",
        "type": "t_address_payable"
      },
      {
        "astId": 4278,
        "contract": "contracts/BaseAgreement.sol:BaseAgreement",
        "label": "influencer",
        "offset": 0,
        "slot": "11",
        "type": "t_address_payable"
      },
      {
        "astId": 4280,
        "contract": "contracts/BaseAgreement.sol:BaseAgreement",
        "label": "endDate",
        "offset": 0,
        "slot": "12",
        "type": "t_uint256"
      },
      {
        "astId": 4282,
        "contract": "contracts/BaseAgreement.sol:BaseAgreement",
        "label": "payPerView",
        "offset": 0,
        "slot": "13",
        "type": "t_uint256"
      },
      {
        "astId": 4284,
        "contract": "contracts/BaseAgreement.sol:BaseAgreement",
        "label": "budget",
        "offset": 0,
        "slot": "14",
        "type": "t_uint256"
      },
      {
        "astId": 4286,
        "contract": "contracts/BaseAgreement.sol:BaseAgreement",
        "label": "usingEth",
        "offset": 0,
        "slot": "15",
        "type": "t_bool"
      },
      {
        "astId": 4288,
        "contract": "contracts/BaseAgreement.sol:BaseAgreement",
        "label": "mediaLink",
        "offset": 0,
        "slot": "16",
        "type": "t_string_storage"
      },
      {
        "astId": 4292,
        "contract": "contracts/BaseAgreement.sol:BaseAgreement",
        "label": "agreementStatus",
        "offset": 0,
        "slot": "17",
        "type": "t_enum(Status)4265"
      },
      {
        "astId": 4295,
        "contract": "contracts/BaseAgreement.sol:BaseAgreement",
        "label": "API_KEY",
        "offset": 0,
        "slot": "18",
        "type": "t_string_storage"
      },
      {
        "astId": 4298,
        "contract": "contracts/BaseAgreement.sol:BaseAgreement",
        "label": "BASE_URL",
        "offset": 0,
        "slot": "19",
        "type": "t_string_storage"
      }
    ],
    "types": {
      "t_address": {
        "encoding": "inplace",
        "label": "address",
        "numberOfBytes": "20"
      },
      "t_address_payable": {
        "encoding": "inplace",
        "label": "address payable",
        "numberOfBytes": "20"
      },
      "t_bool": {
        "encoding": "inplace",
        "label": "bool",
        "numberOfBytes": "1"
      },
      "t_bytes32": {
        "encoding": "inplace",
        "label": "bytes32",
        "numberOfBytes": "32"
      },
      "t_contract(ChainlinkRequestInterface)855": {
        "encoding": "inplace",
        "label": "contract ChainlinkRequestInterface",
        "numberOfBytes": "20"
      },
      "t_contract(ENSInterface)935": {
        "encoding": "inplace",
        "label": "contract ENSInterface",
        "numberOfBytes": "20"
      },
      "t_contract(IERC20)3380": {
        "encoding": "inplace",
        "label": "contract IERC20",
        "numberOfBytes": "20"
      },
      "t_contract(LinkTokenInterface)1030": {
        "encoding": "inplace",
        "label": "contract LinkTokenInterface",
        "numberOfBytes": "20"
      },
      "t_enum(Status)4265": {
        "encoding": "inplace",
        "label": "enum BaseAgreement.Status",
        "numberOfBytes": "1"
      },
      "t_mapping(t_bytes32,t_address)": {
        "encoding": "mapping",
        "key": "t_bytes32",
        "label": "mapping(bytes32 => address)",
        "numberOfBytes": "32",
        "value": "t_address"
      },
      "t_string_storage": {
        "encoding": "bytes",
        "label": "string",
        "numberOfBytes": "32"
      },
      "t_uint256": {
        "encoding": "inplace",
        "label": "uint256",
        "numberOfBytes": "32"
      }
    }
  }
}